:10000000F01F001031170000291700002917000009
:100010002917000029170000291700000000000020
:100020000000000000000000000000002917000090
:10003000291700000000000029170000890B0000AC
:10004000A50A0000A50A0000A50A0000A50A0000F4
:10005000A50A0000A50A0000A50A0000A50A0000E4
:10006000A50A0000A50A0000A50A0000A50A0000D4
:10007000A50A00002117000021170000D908000080
:10008000090C0000290C0000290D0000490D00009A
:10009000190B0000BD0E0000211700002117000001
:1000A00021170000F9160000211700002117000099
:1000B0007904000035040000F1030000AD030000E6
:1000C00080B582B000AF0A1CFB1D011C1970BB1D5E
:1000D0001A70FB1D1A78BB1D1B78101C191C00F030
:1000E0008DFA031C002B09D0FB1D1A78BB1D1B7851
:1000F000101C191C002200F0CFFA08E0FB1D1A7832
:10010000BB1D1B78101C191C012200F0C5FABD464E
:1001100002B080BD80B500AF00F002F90A2000F007
:1001200063FDE1231B02181C00F05CFF1F4B181C31
:1001300000F058F81E4AE1231B02101C191C01F0A4
:10014000C3FA1C4B181C0A2101F0BEFA00F0B6F9E4
:1001500003200521012200F0C9F903200521002216
:1001600000F09AFA144B181C00F03CF8134B1B6873
:100170009620C000191C01F0FDFA031C0020191C78
:1001800000F00EFE002000F0EFFD0D4B181C00F0FB
:1001900029F800F0B5FC0B4B0020191C00F070FD95
:1001A00003200521FFF78CFFF5E7C0461418000077
:1001B00030180000481800007018000078800440D3
:1001C000A41800003075000080B582B000AF021C9A
:1001D000FB1D1A70FB1D1B78181C00F08FFFBD461D
:1001E00002B080BD80B582B000AF786004E07B686B
:1001F0001B78181CFFF7E8FF7B681B785A1E934199
:10020000DBB27A6801327A60002BF0D10023181C2F
:10021000BD4602B080BDC04680B584B000AF021CB0
:10022000FB1D1A70344B344A126820218A431A602D
:10023000324B00221A600023FB6003E0C046FB68DB
:100240000133FB60FB68C72BF8D92D4B01221A60E4
:100250002C4B01221A602B4B00221A60294B0122E1
:100260001A60284B1B681A1C01231340002BF8D07E
:10027000FB1D1B78022B07D0032B09D0012B0BD1C0
:10028000214B21221A600AE01F4B22221A6006E04D
:100290001D4B23221A6002E01B4B20221A60164BD2
:1002A000154A126880218A431A60184B1B681A1C71
:1002B00001231340002BF8D0154B03221A60154B75
:1002C00001221A60134B00221A60124B01221A609D
:1002D000104B1B681A1C01231340002BF8D00E4B47
:1002E00001221A600D4A0D4B196880235B020B43F3
:1002F0001360BD4604B080BD3882044020800440B5
:100300004080044044800440088004400C80044045
:1003100070800440748004407880044080800440F1
:1003200080B500AF00F0CAF80E4B0E4A1268120BEF
:1003300012031A600C4B0C4A1268120B12031A605B
:100340000A4B0A4A1268120B12031A60084B084A39
:100350001268120B12031A600020FFF75DFFBD4602
:1003600080BDC046008000500080015000800250D7
:100370000080035090B583B000AF021CFB1D1A70C3
:10038000094BFA1D127852B25209F91D0978081C5E
:100390001F2101400120041C8C40211C9200D150DF
:1003A000BD4603B090BDC04600E100E080B582B01C
:1003B00000AF0D4B1B685A1C0B4B1A60002001212B
:1003C00000F0ECF9031C7B607B68002B08D0074B26
:1003D0001B685A1C054B1A600020012100F036FAF8
:1003E000BD4602B080BDC0460400001014000010DD
:1003F00080B582B000AF0D4B1B685A1C0B4B1A60C6
:100400000120012100F0CAF9031C7B607B68002BEE
:1004100008D0074B1B685A1C054B1A6001200121AC
:1004200000F014FABD4602B080BDC04608000010BE
:100430001800001080B582B000AF0D4B1B685A1C2D
:100440000B4B1A600220012100F0A8F9031C7B600D
:100450007B68002B08D0074B1B685A1C054B1A60A1
:100460000220012100F0F2F9BD4602B080BDC04675
:100470000C0000101C00001080B582B000AF0D4BC6
:100480001B685A1C0B4B1A600320012100F086F9EF
:10049000031C7B607B68002B08D0074B1B685A1C31
:1004A000054B1A600320012100F0D0F9BD4602B0CF
:1004B00080BDC046100000102000001080B500AFC5
:1004C000094B094A116840220A431A601F20FFF7AE
:1004D00051FF1E20FFF74EFF1D20FFF74BFF1C2092
:1004E000FFF748FFBD4680BD8080044090B585B0D1
:1004F00000AFF860B960FB1D1A70FB68012B21D0BA
:10050000012B04D3022B38D0032B51D06AE0FB1D02
:100510001B78012B0AD1354B344A1168BA68012087
:10052000041C9440221C0A431A605BE02F4B2F4AA4
:100530001168BA680120041C9440221CD2430A406E
:100540001A604FE0FB1D1B78012B0AD1284B284A6B
:100550001168BA680120041C9440221C0A431A60E6
:1005600040E0234B224A1168BA680120041C9440E1
:10057000221CD2430A401A6034E0FB1D1B78012B79
:100580000AD11C4B1B4A1168BA680120041C944014
:10059000221C0A431A6025E0164B164A1168BA68F5
:1005A0000120041C9440221CD2430A401A6019E026
:1005B000FB1D1B78012B0AD10F4B0F4A1168BA683B
:1005C0000120041C9440221C0A431A600AE00A4BD2
:1005D000094A1168BA680120041C9440221CD243C5
:1005E0000A401A60BD4605B090BDC046008000506C
:1005F00000800150008002500080035080B584B01C
:1006000000AF786039600023FB607B68012B12D05B
:10061000012B04D3022B1AD0032B24D02EE01A4B2B
:100620001A683B680121081C9840031C13405A1E9D
:100630009341FB6022E0154B1A683B680121081CBE
:100640009840031C13405A1E9341FB6016E0104B68
:100650001A683B680121081C9840031C13405A1E6D
:100660009341FB600AE00B4B1A683B680121081CB0
:100670009840031C13405A1E9341FB60FB68181CF2
:10068000BD4604B080BDC046FC3F0050FC3F015059
:10069000FC3F0250FC3F035090B585B000AFF860BE
:1006A000B9607A60FB68012B20D0012B04D3022BA8
:1006B00036D0032B4ED066E07B68012B0AD1334B3A
:1006C000324A1168BA680120041C9440221C0A4373
:1006D0001A6058E02D4B2D4A1168BA680120041C9D
:1006E0009440221CD2430A401A604CE07B68012BE4
:1006F0000AD1274B264A1168BA680120041C94408D
:10070000221C0A431A603EE0214B214A1168BA6854
:100710000120041C9440221CD2430A401A6032E09B
:100720007B68012B0AD11B4B1A4A1168BA68012059
:10073000041C9440221C0A431A6024E0154B154AFD
:100740001168BA680120041C9440221CD2430A405C
:100750001A6018E07B68012B0AD10F4B0E4A116812
:10076000BA680120041C9440221C0A431A600AE063
:10077000094B094A1168BA680120041C9440221CE4
:10078000D2430A401A60BD4605B090BDFC3F005000
:10079000FC3F0150FC3F0250FC3F035080B584B049
:1007A00000AF786039600023FB607B68012B13D0B9
:1007B000012B04D3022B1CD0032B27D038E01F4B76
:1007C0001A683B680121081C9840031C1340002B49
:1007D00029D00123FB602BE0194B1A683B680121EB
:1007E000081C9840031C1340002B1ED00123FB6003
:1007F0001EE0144B1A683B680121081C9840031C3A
:100800001340002B13D00123FB6011E00E4B1A683C
:100810003B680121081C9840031C1340002B07D0A3
:100820000123FB6004E0C04602E0C04600E0C04691
:10083000FB68181CBD4604B080BDC046188000503F
:1008400018800150188002501880035090B583B072
:1008500000AF786039607B68012B11D0012B04D385
:10086000022B18D0032B21D02AE0174B164A11680F
:100870003A680120041C9440221C0A431A601FE0BD
:10088000124B124A11683A680120041C9440221C41
:100890000A431A6014E00E4B0D4A11683A680120B1
:1008A000041C9440221C0A431A6009E0094B094ABF
:1008B00011683A680120041C9440221C0A431A6003
:1008C000BD4603B090BDC0461C8000501C80015046
:1008D0001C8002501C80035080B582B000AF664B74
:1008E0001A68FB1D1A70FB1D1B78083B502B00D9A2
:1008F000BBE09A00614BD3181B689F46604B0022F7
:100900001A60604A5E4B1B685F49C95CC9B21160DE
:100910005A1C5B4B1A605D4B28221A605C4B01220B
:100920001A70A5E05B4B00221A60564A544B1B68B4
:100930005549C95CC9B211605A1C514B1A60534BDE
:1009400028221A60524B02221A7091E0504B1B78F9
:10095000DBB2012B0CD14B4A494B1B684A49C95C9D
:10096000C9B211605A1C464B1A60494B04221A70D6
:10097000464B08221A607BE0414B1A68464B1B68C5
:100980009A420DD23F4A3E4B1B683F49C95CC9B2EF
:1009900011605A1C3A4B1A603D4B04221A7012E047
:1009A0003E4B1B68002B07D08023DB0520221A60FA
:1009B000374B03221A7006E0354B05221A7080234C
:1009C000DB0510221A60314B08221A6050E0334BCD
:1009D0001B68012B03D12D4B04221A6003E08023F6
:1009E000DB0504221A60294B08221A6040E0294BDB
:1009F0001B68244A1268D1B2294AD1545A1C254B8B
:100A00001A60244B1A68254B1B689A4207D2204B68
:100A100004221A708023DB0504221A6005E01C4BB7
:100A200005221A70194B04221A60184B08221A600A
:100A30001EE0184B1B68134A1268D1B2184AD154F1
:100A40005A1C144B1A60124B05221A708023DB05C6
:100A500010221A600D4B08221A6009E00B4B082285
:100A60001A600B4B05221A7002E0084B08221A602C
:100A7000BD4602B080BDC04604000040CC18000056
:100A80002C00001008000040640000101800004016
:100A9000240000102800001070000010500000100A
:100AA0005400001080B582B000AF114B00221A60D4
:100AB000104B1B687B607B68002B02D00E4B7A6862
:100AC0001A600020FFF7A8FB0C4B1B689620C000A3
:100AD000191C00F04FFE031C0020191C00F060F9E7
:100AE000002000F041F9C046BD4602B080BDC046BE
:100AF000044001400C820440088204407880044095
:100B000080B500AF034B034A126870218A431A6014
:100B1000BD4680BD3882044080B582B000AF154B21
:100B20001B687B607A6801231340DBB2002B07D07F
:100B3000114B1B685A1C104B1A60104B01221A6093
:100B40007A6802231340002B07D00D4B1B685A1CF8
:100B50000B4B1A60094B02221A607A680423134077
:100B6000002B04D0074B1B685A1C064B1A60BD466D
:100B700002B080BD1C00044034000010200004407E
:100B8000380000103000001080B500AF034B1B6828
:100B90005A1C024B1A60BD4680BDC046740000104E
:100BA00080B582B000AF78607A680B4B9A4201D969
:100BB00001230CE0094B7A681202120A013A1A600A
:100BC000074B00221A60074B07221A600023181CEB
:100BD000BD4602B080BDC046FFFFFF0014E000E04C
:100BE00018E000E010E000E080B582B000AF78606F
:100BF0007B68044A5343181CFFF7D2FFBD4602B07E
:100C000080BDC046E02E000080B500AF044B01223D
:100C10001A60044B1B685A1C024B1A60BD4680BD0B
:100C200000C000403C00001080B500AF044B012222
:100C30001A60044B1B685A1C024B1A60BD4680BDEB
:100C4000000001404000001090B583B000AF021CCE
:100C5000FB1D1A70094BFA1D127852B25209F91D88
:100C60000978081C1F2101400120041C8C40211C14
:100C70009200D150BD4603B090BDC04600E100E0F7
:100C800080B584B000AF021C3960FB1D1A70FB1DDB
:100C90001B78002B1ED1224B1B68FB603B68DA439C
:100CA000FB689A420ED207E0FA683B68D3185A1CD8
:100CB0001B4B1B689A42F7D8194B1A68FB689A427B
:100CC000F2D229E0164B1A68FB68D21A3B689A42A6
:100CD000F8D321E0FB1D1B78012B1DD1114B1B68A4
:100CE000FB603B68DA43FB689A420ED207E0FA6881
:100CF0003B68D3185A1C0B4B1B689A42F7D8094B18
:100D00001A68FB689A42F2D206E0064B1A68FB6842
:100D1000D21A3B689A42F8D3BD4604B080BDC046A3
:100D2000440000104800001080B500AF044B0122C1
:100D30001A60044B1B685A1C024B1A60BD4680BDEA
:100D4000004001404400001080B500AF044B012278
:100D50001A60044B1B685A1C024B1A60BD4680BDCA
:100D6000008001404800001080B582B000AF021C36
:100D7000FB1D1A70FB1D1B78002B03D1064B0122B3
:100D80001A6006E0FB1D1B78012B02D1034B0122E8
:100D90001A60BD4602B080BD04400140048001409D
:100DA00080B582B000AF021C3960FB1D1A703B6831
:100DB000002B08D11D4B1B689620C000191C00F0A9
:100DC000D9FC031C3B60FB1D1B78002B13D1184A78
:100DD000174B196880239B000B431360154B0022AF
:100DE0001A60154B3A681A60144B03221A601220DD
:100DF000FFF72AFF16E0FB1D1B78012B12D10C4ACE
:100E00000B4B19688023DB000B4313600C4B002253
:100E10001A600C4B3A681A600B4B03221A601320BD
:100E2000FFF712FFBD4602B080BDC0467880044087
:100E300080800440440000101840014014400140EC
:100E400048000010188001401480014090B583B024
:100E500000AF021CFB1D1A70094BFA1D127852B22A
:100E60005209F91D0978081C1F2101400120041CAA
:100E70008C40211C9200D150BD4603B090BDC046AD
:100E800000E100E090B583B000AF021CFB1D1A70BA
:100E9000094BFA1D127852B25209F91D0978081C43
:100EA0001F2101400120041C8C40211C2032920093
:100EB000D150BD4603B090BD00E100E080B582B0E6
:100EC00000AF414B1A687B1D1A707B1D7A1D12788A
:100ED00001218A431A707B1D7A1D11780E220A4067
:100EE0001A707B1D1B78062B2BD1384B1A68BB1D43
:100EF0001A70BB1D1A789E231340002B08D0BB1D0F
:100F00001A78334B1A60334B1A68FB1D1A7057E07E
:100F1000BB1D1A7801231340DBB2002B49D02E4BA6
:100F20001B682C4A1268D1B22C4AD1545A1C2A4B45
:100F30001A60294B1B68402B3DD1274B00221A60B9
:100F40003EE07B1D1B78042B11D1234B1B68214AEB
:100F50001268D1B2214AD1545A1C1F4B1A601E4B41
:100F60001B68402B29D11C4B00221A6028E07B1DF6
:100F70001B780C2B07D1164B1A6880235B001A4391
:100F8000134B1A601CE07B1D1B78022B17D10F4BF3
:100F90001A68BB1D1A70BB1D1A7820231340002B42
:100FA00003D00F4B01221A700AE00D4B00221A7079
:100FB00006E0C04604E0C04602E0C04600E0C0468D
:100FC000BD4602B080BDC04608800040148000408D
:100FD000B8000010008000404C00001078000010A5
:100FE0000000001080B584B000AF7860364B01225D
:100FF0001A70364B00221A601520FFF743FF344B5E
:10100000334A126807218A431A60314B304A11680B
:1010100001220A431A602F4B2E4A126807218A4385
:101020001A602C4B2B4A116801220A431A602A4A83
:10103000294B196880235B010B431360274B012266
:101040001A60274B83221A60244B1B68FB60254BD8
:101050001B68254A5343181CF96800F08BFB031CDE
:101060001B09181C796800F085FB031CBB601F4B33
:10107000BA68120A1A601E4BB968FF220A401A6049
:10108000174B03221A601B4B07221A601A4B1B686E
:10109000FB60194B1A6860231340602BF9D102E002
:1010A000134B1B68FB60144B1B681A1C0123134075
:1010B000DBB2002BF4D11520FFF7C8FE0B4B052245
:1010C0001A60BD4604B080BD000000104C00001046
:1010D000A4400440A840044080800440988004401C
:1010E0000C80004078800440001BB7000480004062
:1010F00000800040088000401480004080B582B02D
:1011000000AF021CFB1D1A70064B1A682023134007
:10111000002BF9D0044BFA1D12781A60BD4602B0BC
:1011200080BDC046148000400080004080B582B081
:1011300000AF78600A1CFB1C1A707B68FA1C1278DE
:101140001A700123181CBD4602B080BD80B584B062
:1011500000AF786039600023FB600CE03B681A78D0
:101160007B681A707B6801337B603B6801333B60AE
:10117000FB680133FB603B681B78002BEED1FB68FA
:10118000181CBD4604B080BD80B586B000AFF860C5
:101190007A603B603B1C0B330A1C1A7000237B6196
:1011A0007B68013B7B603B68092B24D93B68181C9A
:1011B0000A2100F0DFFA031CF8683A1C0B321178A0
:1011C0007A68FFF7E1FF031C7B617B69FA68D3183B
:1011D000FB6013E0FA683B1C0B331B78101C191CD6
:1011E000FFF7A4FFFB680133FB607B6901337B6180
:1011F0007B68013B7B607B68002BEBDC3B68181C49
:101200000A2100F0FBFA0B1CDBB23033DBB2FA68C8
:10121000101C191CFFF78AFF031C7A69D3187B6125
:101220007B69181CBD4606B080BDC04680B586B03F
:1012300000AFF8607A603B603B1C0B330A1C1A70ED
:1012400000233B613B68002B03DA3B685B427B6118
:1012500001E03B687B617B68013B7B607B69092B1C
:1012600027D93B68002B10DA7B69181C0A2100F093
:1012700081FA031C5B42F8683A1C0B3211787A68D9
:10128000FFF7D4FF031C3B610EE07B69181C0A21A9
:1012900000F070FA031CF8683A1C0B3211787A6877
:1012A000FFF7C4FF031C3B613B69FA68D318FB607E
:1012B00029E03B68002B14DA7B68013B7B6010E07F
:1012C000FA683B1C0B331B78101C191CFFF72EFF10
:1012D000FB680133FB603B6901333B617B68013B89
:1012E0007B607B68002BEBDC3B68002B0BDAFB6838
:1012F000181C2D21FFF71AFF031C3A69D3183B6114
:10130000FB680133FB607B69181C0A2100F076FA48
:101310000B1CDBB23033DBB2FA68101C191CFFF770
:1013200005FF031C3A69D3183B613B69181CBD4695
:1013300006B080BD90B589B002AFF8607A601A1C23
:101340003B1C0B331970FB1C1A7000237B617B68FC
:10135000013B7B60BB6A1B09002B27D0BB6A1B09C2
:101360009C46F8683B1C0B3319787A68FB1C1B7889
:1013700064460094FFF7DEFF031C7A69D3187B6193
:101380007B69FA68D318FB6013E0FA683B1C0B33E7
:101390001B78101C191CFFF7C9FEFB680133FB60AA
:1013A0007B6901337B617B68013B7B607B68002B41
:1013B000EBDCBA6A0F231340092B0BD8BB6ADBB2F4
:1013C0000F2213403033DBB2FA68101C191CFFF7F0
:1013D000ADFE1AE0FB1C1B78002B0BD0BB6ADBB206
:1013E0000F2213403733DBB2FA68101C191CFFF7C9
:1013F0009DFE0AE0BB6ADBB20F2213405733DBB21B
:10140000FA68101C191CFFF791FE7B6901337B61A0
:101410007B69181CBD4607B090BDC04680B58AB038
:1014200002AFF860B9607A603B600023BB610023C3
:10143000FB61FB68002B00D1E6E0FB6800221A701C
:10144000E3E07B681B78252B0DD07B681A78FB685E
:101450001A70FB680133FB607B6801337B60FB69BA
:101460000133FB61D1E07B6801331B78252B0CD164
:10147000FB6825221A70FB680133FB607B6802332E
:101480007B60FB690133FB61BFE03B1C163320220C
:101490001A703B1C173300221A707B6801337B6083
:1014A0007B681B78302B1BD13B1C163330221A7003
:1014B0007B6801337B6014E03B1C17331B781A1CDC
:1014C0009200D3185B00DAB27B681B78D318DAB2CB
:1014D0003B1C1733303A1A707B6801337B6000E0A5
:1014E000C0467B681B782F2B03D97B681B78392B70
:1014F000E2D93B1C17331A78FB69D3181A1CBB6856
:101500009A4207D9BB68D9B2FB69DAB23B1C1733E0
:101510008A1A1A707B681B78583B202B65D89A0072
:10152000494BD3181B689F463B1C17331A783B68FE
:10153000191D39601B68F868391C16310978FFF7E6
:1015400075FE031CBB6153E03B1C17331A783B68E4
:10155000191D39601B68F868391C16310978FFF7C6
:1015600013FE031CBB6143E03B1C17331A783B6836
:10157000191D39601868F9683B1C16331B780090F8
:10158000081C191C0023FFF7D5FE031CBB612FE0CC
:101590003B1C17331A783B68191D39601868F968C5
:1015A0003B1C16331B780090081C191C0123FFF705
:1015B000C1FE031CBB611BE03B681A1D3A601B683F
:1015C000FA68101C191CFFF7C1FD031CBB610FE07A
:1015D0003B681A1D3A601B68DBB2FA68101C191CC4
:1015E000FFF7A4FD031CBB6102E001235B4227E07F
:1015F0007B6801337B60BB69FA68D318FB60FA69CA
:10160000BB69D318FB6100E0C0467B681B78002BE8
:1016100004D0FA69BB689A4200D212E7FA69BB6843
:101620009A4203D2FB6800221A7008E0FB68013B73
:10163000FB60FB6800221A70FB69013BFB61FB69E0
:10164000181CBD4608B080BD101A000080B584B0DB
:1016500000AFF860B9607A60F968BA687B68081C06
:101660006421FFF7DBFE031C181CBD4604B080BDDF
:1016700090B5A5B000AF786039603B1C0833114AC3
:1016800013CA13C313CA13C313CA13C3391C2C318F
:101690007A683B68081C111C1A1CFFF7D7FF031C53
:1016A000632B05DD3B1C0833181CFEF79BFDFEE792
:1016B0003B1C2C33181CFEF795FD031C181CBD4663
:1016C00025B090BD941A00000FB480B582B000AF71
:1016D0003B1C14333B603A693B68101C191CFFF734
:1016E000C7FF031C7B607B68181CBD4602B080BC32
:1016F00008BC04B01847C04680B500AF064B064A88
:10170000126804218A431A60044B1B685A1C034B5D
:101710001A60BD4680BDC04600400040BC000010BD
:1017200080B500AFFEE7C04680B500AFFEE7C0461B
:10173000B0B500AF0A4D0B4C03E02B782370013499
:101740000135094B9C42F8D3084C02E0002323707A
:101750000134074B9C42F9D3FEF7DCFCFEE7C046A0
:10176000B81A000000000010010000100400001072
:10177000C0000010002934D00123002210B4884298
:101780002CD301242407A14204D2814202D20901B0
:101790001B01F8E7E400A14204D2814202D24900D1
:1017A0005B00F8E7884201D3401A1A434C08A04274
:1017B00002D3001B5C0822438C08A04202D3001B0A
:1017C0009C082243CC08A04202D3001BDC08224321
:1017D000002803D01B0901D00909E3E7101C10BC45
:1017E0007047002801D00020C04307B4024802A17E
:1017F0004018029003BDC046190000000029F0D037
:1018000003B5FFF7B9FF0EBC4243891A1847C0461B
:101810007047C0464C50433131313420696E697491
:1018200069616C6973656420402031324D487A00EB
:101830005541525420656E61626C6564206174206C
:1018400025640D0A000000005379735469636B200E
:1018500074696D65722073657420776974682025DA
:1018600064206D532064656C61790D0A00000000EE
:10187000496E697469616C6973696E672033322DD2
:101880006269742054696D657220302077697468CC
:10189000203130302075532064656C61792E2E2EF6
:1018A0000D000000496E697469616C6973696E6747
:1018B00020706F7765722D6D616E6167656D656E05
:1018C0007420756E69742E2E2E0D0000FC08000029
:1018D0006A0A00006A0A00006A0A00006A0A000038
:1018E0006A0A00006A0A00006A0A0000240900006F
:1018F0006A0A00006A0A00006A0A00006A0A000018
:101900006A0A00006A0A00006A0A00004C09000026
:101910006A0A00006A0A00006A0A00006A0A0000F7
:101920006A0A00006A0A00006A0A00005C0A0000F5
:101930006A0A00006A0A00006A0A00006A0A0000D7
:101940006A0A00006A0A00006A0A000078090000BA
:101950006A0A00006A0A00006A0A00006A0A0000B7
:101960006A0A00006A0A00006A0A0000780900009A
:101970006A0A00006A0A00006A0A00006A0A000097
:101980006A0A00006A0A00006A0A00006A0A000087
:101990006A0A00006A0A00006A0A00006A0A000077
:1019A0006A0A00006A0A00006A0A0000CE09000004
:1019B0006A0A00006A0A00006A0A00006A0A000057
:1019C0006A0A00006A0A00006A0A00005C0A000055
:1019D0006A0A00006A0A00006A0A00006A0A000037
:1019E0006A0A00006A0A00006A0A0000EE090000A4
:1019F0006A0A00006A0A00006A0A00006A0A000017
:101A00006A0A00006A0A00006A0A0000320A00003E
:101A100090150000EA150000EA150000EA15000024
:101A2000EA150000EA150000EA150000EA150000BA
:101A3000EA150000EA150000EA150000D0150000C4
:101A400028150000EA150000EA150000EA1500005C
:101A5000EA15000028150000EA150000EA1500004C
:101A6000EA150000EA150000EA150000EA1500007A
:101A7000EA150000EA150000EA150000B81500009C
:101A8000EA15000048150000EA150000EA150000FC
:101A900068150000737464696F2E633A20696E6381
:101AA0007265617365204D41585F535452494E47EA
:081AB0005F53495A450A0D007D
:011AB800012C
:0400000300001731B1
:00000001FF
