:100000000010001075020000B5020000B7020000E9
:1000100000000000000000000000000000000000E0
:10002000000000000000000000000000B902000015
:100030000000000000000000BB0200006901000099
:10004000C1020000C3020000C5020000C702000098
:10005000C9020000CB020000CD020000CF02000068
:10006000D1020000D3020000D5020000D702000038
:10007000D9020000DB020000DD020000DF02000008
:10008000E1020000E3020000E5020000E7020000D8
:10009000E902000021010000ED020000EF02000073
:1000A000F1020000F3020000F5020000F702000078
:1000B000F9020000FB020000FD020000FF02000048
:1000C00010B5064C2378002B07D10548002802D034
:1000D000044800E000BF0121217010BD780000102D
:1000E00000000000680A000008B5084B002B03D090
:1000F0000748084900E000BF07480168002903D00D
:10010000064A002A00D0904708BDC0460000000003
:10011000680A00007C00001074000010000000005D
:100120000E4B0C22996810B5114215D05869C107C1
:1001300012D50B4A10780130011C10394C1EA14118
:10014000084C4942014020788142EFD010781C6869
:10015000C9B204701170E9E710BDC04600800040CC
:1001600098000010A4000010074B084A1968106896
:10017000013010601A681A601B688B4203D2044970
:100180000868013008607047A0000010940000105B
:100190009C00001010B50A4C0A4B0B4A20681A60EC
:1001A0004068002100F0B4F821688868002100F060
:1001B000AFF822680021D06800F0AAF810BDC04650
:1001C0006800001000000010006CDC02F7B50C1C89
:1001D000631A934229DA174880274568164B019520
:1001E0000026BD034660154FDD67154B3D781F782F
:1001F000BD420DD01F783D781F78BC460127BC4416
:100200006746FFB21F701F78102F02D11E7000E0EA
:100210000C4D019E0C4B4660802087032DB21F6061
:100220006F1CD8D025700134D2E7D043C0171040DE
:10023000FEBDC0460080004004E100E098000010D0
:10024000A4000010FFFF000000E100E070B50B1CEF
:100250008818C41A002C07DD1C7804484569AE06CE
:10026000FBD504600133F3E7101C70BD0080004033
:10027000704700000A490B4A0B4B9B1A03DD043BF5
:10028000C858D050FBDC0949094A521A03DD002046
:100290008850043AFCDAFFF77DFFFFF7E9FF000022
:1002A0006C0A0000000000107800001078000010B8
:1002B000B4000010FEE7FEE7FEE7FEE7FEE7FEE71C
:1002C000FEE7FEE7FEE7FEE7FEE7FEE7FEE7FEE706
:1002D000FEE7FEE7FEE7FEE7FEE7FEE7FEE7FEE7F6
:1002E000FEE7FEE7FEE7FEE7FEE7FEE7FEE7FEE7E6
:1002F000FEE7FEE7FEE7FEE7FEE7FEE7FEE7FEE7D6
:100300008218031C934202D019700133FAE7704738
:1003100008B54A424A4180235200DB0000F002F84F
:1003200008BD0000F7B53E4F041C38680E1C019252
:100330001D1C002804D08269002A01D100F078F940
:10034000384B9C4202D13B685C680AE036488442E4
:1003500002D13A68946804E034498C4201D13C6887
:10036000E4680198022858D8002D56DB211C386813
:1003700000F060F8A28900216160A161120603D536
:100380003868216900F0BEF9A3898320019983436D
:10039000A381022913D0002E25D1002D01D1802563
:1003A000ED00281C00F0F6F9061E18D18026F0009A
:1003B00000F0F0F9061E10D10125684200E000208F
:1003C000A3890227211C47313B4300260122A38138
:1003D000A66021602161626121E08022D500A389AD
:1003E00080200343A3810199012904D1A2896B4292
:1003F0000A43A281A3613F680D48B8622660266166
:10040000A68965610020320709D503210E4072429A
:10041000564172421540A56001E001246042FEBDD4
:1004200068000010080A0000280A0000480A0000BE
:1004300089050000F7B50C1C0969051C00293ED090
:10044000002804D08269002A01D100F0F1F84B4B5A
:100450009C4201D16C6808E04948844201D1AC68F3
:1004600003E0484EB44200D1EC68A389002B26D0AB
:100470001F0766D48022100167681843A081002FEF
:1004800002DC266C002E1ADDE76A002F17D08022CE
:10049000002152012E681A40296001D0626D16E0D9
:1004A000281C216A0123B847021C431C0FD12B686A
:1004B000002B0CD01D2B01D0162B02D12E6000205A
:1004C0005BE0A58940200543A581101C55E0A78964
:1004D0007F0706D56168636B521A002B01D0206C30
:1004E000121A216A281C0023E76AB847411C0DD163
:1004F0002A68002A0AD01D2A08D0162A06D0A68902
:1005000040252E43A6810124604236E02369A78955
:10051000002161602360FF0405D5411C02D12A68D7
:10052000002A00D16065616B2E600029C7D0201CB5
:100530004430814202D0281C00F0E4F800206063BF
:100540001BE02669002EBAD027680022B91B019152
:100550002660990700D16269A26001980028AEDD8B
:10056000281C216A321C019BA76AB8470028C6DDF7
:10057000019B3618191A0191EFE7FEBD080A000029
:10058000280A0000480A0000F8B5041C071C4C3477
:10059000002C13D0A5686668013E0DD40C22AB5E1A
:1005A000002B07D00E22A85E431C03D0381C291C48
:1005B000FFF740FF6835EFE72468E9E7F8BD000082
:1005C00010B50023041C036043608360818143668F
:1005D000C281036143618361191C08225C30FFF70B
:1005E0008FFE05480549064A064B24626062A162F7
:1005F000E262236310BDC046610800008908000064
:10060000C1080000ED08000070B568254D430E1CC0
:10061000291C0C3100F0C8F8041E07D00C30002152
:1006200021606660A0602A1CFFF76AFE201C70BD76
:1006300070B58569041C002D20D1114B0126836201
:100640008661C5640565456500F01CF86060201C86
:1006500000F018F8A060201C00F014F80421E060FD
:100660002A1C6068FFF7ACFFA0680921321CFFF765
:10067000A7FFE06812210222FFF7A2FF70BDC0466B
:1006800089050000F8B51E4B071C1E68B269002AD8
:1006900002D1301CFFF7CCFF4C36B4687368013BC5
:1006A00005D40C22A55E002D11D06834F7E7306820
:1006B000002801D03668F0E7381C0421FFF7A4FFBA
:1006C00030600028F6D10C213960041C15E00122AD
:1006D0005042E0810126201CA68165662560A56048
:1006E000656025616561A5615C30291C0822FFF702
:1006F00007FE6563A563A564E564201CF8BDC046DC
:10070000040A000030B5002940D004390B68002BE2
:1007100000DAC9181E4A1368141C002B02D14B6062
:10072000116033E099420FD20D684A199A4205D1FF
:1007300010682B1855680B604D6000E04B6021601D
:1007400024E08A4203D8131C5A68002AF9D11D6894
:100750005C198C420BD10C682D1958191D60904200
:1007600014D1116852686C181C605A600EE08C42FB
:1007700002D90C21016009E008680D18954203D1E7
:1007800014685268001908604A60596030BDC0465C
:10079000A800001008B5034B011C186800F004F80D
:1007A00008BDC0466800001070B50323CD1C9D43F2
:1007B0000835061C0C2D01D20C2501E0002D2DDB87
:1007C0008D422BD31C4A1368111C1C1C002C12D008
:1007D0002068421B0CD40B2A02D92260A41815E011
:1007E000A34202D166680E601CE065685D6019E096
:1007F000231C6468EAE7301C291C00F01FF8421C27
:100800000CD0C41C03218C43844201D1256009E033
:10081000211A301C00F012F80130F7D10C2434609A
:10082000002008E0201C0B300722211D9043431AB2
:1008300001D05D42E55070BDA800001038B5074CEE
:100840000023051C081C236000F0B4F8431C03D1EE
:100850002168002900D0296038BDC046B0000010D2
:1008600038B50C1C0E25495F00F080F8002803DB2A
:10087000616D0D18656503E0A289024B1340A381E9
:1008800038BDC046FFEFFFFFF8B51E1C8B89051C65
:100890000C1C171CDA0505D50E23C95E00220223A5
:1008A00000F050F8A2890548331C1040A0810E22A8
:1008B000A15E281C3A1C00F01FF8F8BDFFEFFFFFF7
:1008C00038B50C1C0E25495F00F03CF8A389421C8A
:1008D00003D1054D2B40A38104E0802251010B433D
:1008E000A381606538BDC046FFEFFFFF08B50E234A
:1008F000C95E00F015F808BD38B5084C051C00208D
:100900002060081C111C1A1CFFF7A0FC431C03D11B
:100910002368002B00D02B6038BDC046B00000100B
:1009200038B5074C0023051C081C236000F032F882
:10093000431C03D12168002900D0296038BDC0467E
:10094000B000001038B5084C051C00202060081CC1
:10095000111C1A1C00F026F8431C03D12368002B3D
:1009600000D02B6038BDC046B000001038B5084C30
:10097000051C00202060081C111C1A1CFFF726FC17
:10098000431C03D12368002B00D02B6038BDC04628
:10099000B0000010024B5822012040421A607047FC
:1009A000B0000010024B5822012040421A607047EC
:1009B000B0000010094A1368002B0CD018186946C3
:1009C000884202D81060181C7047054B0C22012089
:1009D0001A604342F7E7034B1360EFE7AC000010E7
:1009E000B0000010B8000010F8B5C046F8BC08BC54
:1009F0009E467047F8B5C046F8BC08BC9E46704796
:100A0000430000000400001000000000000000008F
:100A100000000000000000000000000000000000D6
:100A200000000000000000000000000000000000C6
:100A300000000000000000000000000000000000B6
:100A400000000000000000000000000000000000A6
:100A50000000000000000000000000000000000096
:0C0A60000000000000000000000000008A
:100A6C00006CDC0200000000080A0000280A0000EC
:100A7C00480A000000000000000000000000000018
:100A8C0000000000000A0000000000000000000050
:100A9C00000000000000000000000000000000004A
:100AAC00000000000000000000000000000000003A
:100ABC00000000000000000000000000000000002A
:100ACC00000000000000000004000010E90000001D
:080ADC00C10000000000000051
:040000030000027582
:00000001FF
