:10000000002000100D01000099010000990100007E
:1000100000000000000000000000000000000000E0
:100020000000000000000000000000009901000036
:10003000000000000000000099010000990100008C
:100040009901000099010000990100009901000048
:100050009901000099010000990100009901000038
:100060009901000099010000990100009901000028
:100070009901000099010000990100009901000018
:100080009901000099010000990100009901000008
:1000900099010000990100009901000099010000F8
:1000A00099010000990100009901000099010000E8
:1000B00099010000990100009901000099010000D8
:1000C00080B500AF0B4B00221A600B4B23221A6045
:1000D0000A4B0A4A126880218A431A60084B01229F
:1000E0001A60084B03221A60074B01221A60BD46B2
:1000F00080BDC046408004400880044038820440EF
:1001000044800440708004407480044080B584B012
:1001100000AF1C4BFB601C4BBB601C4A1A4BD31A34
:100120007B6009E0FB681A78BB681A70BB68013312
:10013000BB60FB680133FB607B685A1E9341DBB2F6
:100140007A68013A7A60002BECD1114BBB60114AFE
:100150000F4BD31A7B6005E0BB6800221A70BB68A6
:100160000133BB607B685A1E9341DBB27A68013A67
:100170007A60002BF0D1FFF7A3FF00F08BF8BD46AB
:1001800004B080BDCC020000000000100000001090
:10019000000000100000001080B500AFFEE7C04670
:1001A00080B500AF0D4B0D4A12680D490A431A6025
:1001B0000C4B0C4A1268802149000A431A600A4B12
:1001C00001221A60094B01221A60094B084A126881
:1001D00003210A431A60BD4680BDC04680800440AA
:1001E0004000010034400440684004407440044032
:1001F0007C40044080B500AF0E4B0E4A126880214F
:10020000C9000A431A600C4BC822D2001A600B4B7B
:10021000C822D2001A600A4B8022D2001A60094B11
:1002200000221A60084B01221A60084B01221A6052
:10023000BD4680BD8080044024800140188001407C
:100240001480014008800140748001400480014016
:1002500080B582B000AF7860044B7A6864218A1A56
:1002600012011A60BD4602B080BDC0461880014030
:1002700080B582B000AF7860C0467B685A1E93415B
:10028000DBB27A68013A7A60002BF6D1BD4602B043
:1002900080BDC04680B582B000AF32237B60FFF7DF
:1002A0007FFFFFF7A7FF7B687A6801327A60181C2E
:1002B000FFF7CEFF7B68642B01DD00237B60024BE0
:0C02C000181CFFF7D5FFEEE71027000028
:00000001FF
