:10000000001000106D080000AD080000AF080000EF
:1000100000000000000000000000000000000000E0
:10002000000000000000000000000000B108000017
:100030000000000000000000B30800000102000002
:10004000B9080000BB080000BD080000BF080000A0
:10005000C1080000C3080000C5080000C708000070
:10006000C9080000CB080000CD080000CF08000040
:10007000D1080000D3080000D5080000D708000010
:10008000D90800001D080000DD080000DF0800009E
:10009000E1080000A9010000E5080000E7080000F1
:1000A000E9080000EB080000ED080000EF08000080
:1000B000F1080000F3080000F5080000F708000050
:1000C00010B5064C2378002B07D10548002802D034
:1000D000044800E000BF0121217010BD7C00001029
:1000E00000000000441C000008B5084B002B03D0A2
:1000F0000748084900E000BF07480168002903D00D
:10010000064A002A00D0904708BDC0460000000003
:10011000441C000080000010780000100000000067
:10012000034BA022D205D15804204140D150704742
:10013000FC3F0000044B984200D904480449054A9A
:10014000081A10627047C046C4090000DC050000B0
:10015000204E000000C000400E4B022203201A6611
:100160005A6698660C4BC022D96F50000843D86776
:100170000A4A0B4B2F210420D9605A62802158670C
:100180000848CA0080215A6118628A000120DA6397
:10019000586070470040044004800440204E000036
:1001A00000C0004044480000104B0C22996870B514
:1001B000114219D00E480F4D5A6904782D68D107A5
:1001C00012D50D4A10780130011B4E1EB1410B4E65
:1001D000494201403078814204D010781E68C9B28B
:1001E0002E5411705A69EAE770BDC0460080004085
:1001F00000000010AC000010E1000010020100102F
:10020000F8B5204A204B214D186811680131116062
:100210001C6829680E191E601F68874203D21C4B98
:100220001868013018601B4E1B4D37782B68002072
:10023000B8420DD25C68002C07DD5A68541A5C6025
:100240005A68002A01DC00245C6001300C33EFE7BF
:1002500000243278944214D20C2767432968CB19C2
:100260005868002804D19A68002A01D09968884704
:100270002B68DF197868002801D13A687A60013468
:10028000E7E7F8BD9C000010A0000010A4000010DB
:10029000980000100C0100100801001010B50A4C65
:1002A0000A4B0B4A20681A604068002100F076FB78
:1002B00021688868002100F071FB22680021D06865
:1002C00000F06CFB10BDC0466C0000100400001074
:1002D000006CDC02012070478023980148600020F8
:1002E00070470000F0B51E4B1E4C1868257885B08D
:1002F000029003950C1C661A96422CDA1A48802349
:1003000047689D030197194F194B00264660FD670A
:100310001D78184B1F78BD4210D01D78029F7D5D5F
:100320001F78BC460127BC446746FFB21F701F7888
:10033000BC46039FBC4502D11E7000E00E4D019EDD
:100340000E4B4660802087032DB21F606F1CD5D0F6
:1003500025700134CFE7D143C817104005B0F0BD78
:10036000AC000010000000100080004004E100E03C
:10037000E100001002010010FFFF000000E100E0BA
:1003800070B50B1C8818C41A002C07DD1C780448B3
:100390004569AE06FBD504600133F3E7101C70BD60
:1003A00000800040F0B5DD48002385B0039302686B
:1003B000112102268A433243026003688E27D84BFC
:1003C000B740DC5980200443DC511A6C0325AA4352
:1003D0001A64196C19645C6CB4435C645A6C1643FF
:1003E0005E6423269E60DD598543DD51CD4F013F7C
:1003F000002F15D0D8680121C94A0842F7D0CA4C4D
:10040000CA4E03203460176F156F074385432C1CB9
:100410003C431467566F8E435667576F3943516795
:10042000C24A1168002201910392039DC04885428F
:1004300002D8039A0132F7E700200390039CBD4ED7
:10044000B44203D8C04603980130F6E7BA4E802282
:10045000F76F51023943F1678025A0200122B74987
:100460002C02C7055542B648B64A3D510D511124DC
:10047000012504601560F16F80246001B24A0843D1
:100480000125F0671560B14A83211A24D1601460F8
:10049000002454609560D56880208543D560AC49C0
:1004A000AC4D20200D60AC4DAC492870AC4D0C70AB
:1004B000072001212C7090605160AA48802295038A
:1004C0008E2105608A009D58102085439D50F16F54
:1004D00080239A01A44F0A43A44DA5490223A548AD
:1004E000F2670D60BB67FB67A34DC3670422CB684F
:1004F0002A70A249A24D01980D60642101F0B2FA60
:10050000A04BA14A0138586107210A209C612C6048
:1005100010606C60AC60EC602C616C61AC61EC6193
:100520002C626C62AC62EC6219610123FB60914841
:10053000964B83228321FA67C2671960F06F80228D
:10054000934BD20093491043F067DC600720596257
:10055000012158674842A8215A619861D861186200
:100560008800D86301205860B863F16F802383400E
:100570000B43F367884E894B2F21F16073627067DC
:100580007261012251422023B161F36375497060A9
:100590007861802082020527B7620A60736A0A3B8D
:1005A0009FB2B761FA26FFF7D7FDB000FFF7C2FD93
:1005B0007B49FA2042002A617A48EA606961019920
:1005C000039400F0A1F9784C25686B680E20195E41
:1005D000764800F099F927687E680C21705E0390D8
:1005E0000399734800F090F92268724891680E22CE
:1005F000895E00F089F925686F48AB680C27DE5FDB
:100600000396039900F080F92768594EF8680E2187
:10061000415E6A4800F078F922686948D1680C2286
:10062000895E00F071F9414D6648296800F06CF967
:10063000FA239D00206841684F68013F4F60002FFA
:1006400005DA00F07BF9031C471C05D038E0086888
:1006500003780130086033E0206882689768013FC2
:100660009760002F12DA91698F420BDB10682D2200
:10067000027020688268136819780A2903D0013350
:1006800013600BE02D2100F0D9FC07E011682D224A
:100690000A70206883681F6801371F6020688268BD
:1006A000916801399160002907DA9369994202DB68
:1006B0001068312312E031212CE01168312213E05F
:1006C00020688268002B11D19368013B9360002B56
:1006D00008DA9769BB4203DB1068302303700FE030
:1006E000302117E0116830220A706FE091680139FB
:1006F0009160002968DA9769B9420ADB10680370D3
:1007000020688268176839780A2903D00137176092
:1007100061E0191C00F092FC5DE0C04610C003408F
:100720000080044040420F00006CDC020400001016
:100730003F420F007F8D5B000480044000000150A9
:10074000A4400440A8400440988004400080004039
:10075000AC000010E200001000000010E1000010EA
:100760000201001000E100E0004004400E0B010017
:1007700000C00140044004400C01001008010010BA
:10078000B000001000E000E0A40000109040044021
:1007900000800140FF03000000000140FFFF000057
:1007A000210100001C1B00006C000010341B000025
:1007B0003E1B0000481B0000591B00006A1B000084
:1007C0007B1B00008C1B0000126813702768B86840
:1007D00002680132026071680C4800F095F80C491B
:1007E0000C4A086842430C48110C00F08DF8FFF7E2
:1007F00097FC281CFFF79EFCFA239F00BD4202D104
:10080000FA21CD0016E73D1C14E7C046911B0000FD
:1008100004010010140A00009C1B000030B50E4AB1
:100820000E4B15781C680E48D96A012D0DD10D4D5F
:1008300029600025157005229A620068B025091A02
:100840006943094A880A106004E0016001211170BF
:1008500006229A621C6030BDE000001000000140DA
:10086000A800001010010010040100100A490B4AF2
:100870000B4B9B1A03DD043BC858D050FBDC0949E5
:10088000094A521A03DD00208850043AFCDAFFF7C7
:1008900005FDFFF787FD0000481C00000000001068
:1008A0007C0000107C00001020010010FEE7FEE735
:1008B000FEE7FEE7FEE7FEE7FEE7FEE7FEE7FEE710
:1008C000FEE7FEE7FEE7FEE7FEE7FEE7FEE7FEE700
:1008D000FEE7FEE7FEE7FEE7FEE7FEE7FEE7FEE7F0
:1008E000FEE7FEE7FEE7FEE7FEE7FEE7FEE7FEE7E0
:1008F000FEE7FEE7FEE7FEE78218031C934202D004
:1009000019700133FAE770470FB40B4B13B51C682D
:10091000002C05D0A069002802D1201C00F06AFD3F
:1009200005ABA168201C049A019300F0DFF816BC07
:1009300008BC04B01847C0466C00001038B5051C50
:100940000C1C002804D08369002B01D100F052FD5B
:100950000F48844201D16C6808E00E498C4201D1F5
:10096000AC6803E00C4A944200D1EC68281C211CBE
:1009700000F0F8FE002807D163682168013B63603E
:1009800008780131216001E00125684238BDC04688
:10099000E41B0000041C0000241C000008B54A42AF
:1009A0004A4180235200DB0000F002F808BD00003D
:1009B000F7B53E4F041C38680E1C01921D1C002820
:1009C00004D08269002A01D100F014FD384B9C420A
:1009D00002D13B685C680AE03648844202D13A683A
:1009E000946804E034498C4201D13C68E468019881
:1009F000022858D8002D56DB211C386800F0E8FB8F
:100A0000A28900216160A161120603D538682169BD
:100A100000F05CFDA389832001998343A38102290F
:100A200013D0002E25D1002D01D18025ED00281CEA
:100A300000F02CFE061E18D18026F00000F026FEE5
:100A4000061E10D10125684200E00020A38902277C
:100A5000211C47313B4300260122A381A66021606F
:100A60002161626121E08022D500A38980200343B7
:100A7000A3810199012904D1A2896B420A43A28171
:100A8000A3613F680D48B86226602661A68965614A
:100A90000020320709D503210E40724256417242AE
:100AA0001540A56001E001246042FEBD6C0000100D
:100AB000E41B0000041C0000241C00004D13000077
:100AC000936810B5013B9360002B05DA9469A3424B
:100AD00008DBCBB20A2B05D01468C8B221700134F0
:100AE000146001E000F0AAFA10BD0000F0B5A1B05A
:100AF000061C0491171C0793002804D08169002963
:100B000001D100F077FC804B049A9A4202D17268BE
:100B100004920BE07D48049C844201D1B36804E058
:100B20007B4D0499A94201D1F36804930498848908
:100B300022070AD50569002D07D008AD0021202322
:100B4000302269616B76AA7640E0301C049900F08F
:100B5000D3FA0028F1D001204042D2E0079F3A6842
:100B6000381D0790002A00DA82E00B9201342378C6
:100B70002E2B00D18DE0674F2178381C032200F026
:100B8000D9FD002806D0C11B2B684020884018439F
:100B9000286001342178604806222976671C00F01D
:100BA000C9FD002800D199E05C4A002A00D08CE001
:100BB0002A68079C0723D10500D484E0E4189C43ED
:100BC000083407940D9905980C180D943C1C207856
:100BD000002804D1E11B069118D003970EE02528C8
:100BE000F8D00134F3E70399301C0978049AFFF731
:100BF00067FF039B0133039301307CD0039B069A6C
:100C0000D81B9042EFDB0D9FB9180D912378002B74
:100C100071D00122694600205742633101342860B7
:100C2000E8606F60A8600870A8653D4F2178381CA7
:100C3000052200F07FFD002807D02A68C71B01238A
:100C4000BB4013432B600134EFE72B68D90603D573
:100C50006A462020633210701A0703D56F462B2195
:100C60006337397020782A2800D177E70B9B05E09D
:100C7000022751423B43E9602B6077E72278303A04
:100C8000092A04D80A214B4301349B18F6E70B9339
:100C90006DE760782A2809D1079B02341F68181D68
:100CA0000790002F0DDA012257420AE00134002795
:100CB0002278303A092A04D80A214F430134BF1858
:100CC000F6E7099757E7073479E707A90091301C41
:100CD000291C049A134B00E000BF07E007AC009406
:100CE000301C291C049A0F4B00F08EF805900598D3
:100CF000421C00D066E7049DAE89720600D52AE743
:100D00000D9821B0F0BDC046E41B0000041C00009B
:100D1000241C0000B61B0000BA1B000000000000ED
:100D2000B01B0000C10A0000F7B5151C01930A6949
:100D30008B6800900C1C934200DA131C201C2B6063
:100D400043300178002901D001332B602668B006BA
:100D500002D52F6802372F602268062616401CD065
:100D6000261C4336377822683E1C731E9E4192062D
:100D70001CD5A319181C40303021271CC1704537E1
:100D80003A784133DA70023610E0617E0098019AB9
:100D9000089FB847013006D00136E3682868191A61
:100DA0008E42F2DBDCE7012040422CE00027B74214
:100DB0000ADAE119433109780098019A089B9847AB
:100DC0000130F0D00137F2E72B6825680621294071
:100DD000E6680025042903D1F01AC743FD17054032
:100DE000A2682669B24201DD931BED180027AF42CD
:100DF00008DAA17E0098019A089EB0470130D2D04F
:100E00000137F4E70020FEBDF0B50D1C8BB0433573
:100E100007930590069204950A7E0C1C109B6E2A7F
:100E200000D1A8E012D8632A24D009D8002A00D122
:100E3000B1E0582A00D0C1E045310A707D4D51E043
:100E4000642A1FD0692A00D0B8E01BE0732A00D1C1
:100E5000A5E009D86F2A2BD0702A00D0AEE00A682E
:100E6000202616430E6038E0752A21D0782A00D05B
:100E7000A4E032E018680E1C051D1D6003684236B0
:100E800033709EE026681F68300606D4750604D5C8
:100E9000381D186000203D5E02E03D1D1D603D686C
:100EA000644B002D3BDA04992D226D420A7036E026
:100EB00027681E683D0605D4780603D5351D1D60DC
:100EC000358802E0311D196035685A4B207E039346
:100ED00008276F281ED00A271CE0271C45377820DA
:100EE000554D38701A682668111D03951960300633
:100EF00003D4750601D5158800E01568F00702D502
:100F000020231E4326601027002D03D126682020B1
:100F100086432660261C43360022327001E003938C
:100F20000A276168A160002903DB20680423984335
:100F30002060002D02D1049E00290ED0049E281CA2
:100F4000391C00F0D3FD039A013E515C281C31701E
:100F5000391C00F087FD051EF1D1049B9A1B22610C
:100F6000082F33D12768F80730D5606890422DDC10
:100F7000013262602AE008681E684969050606D4E5
:100F8000450604D5351D1D603368198003E0321D08
:100F90001A603768396000202061049E16E01E68E0
:100FA000311D19603668301C00F0B8FC656820619E
:100FB000A84200D925612369636004E0261C4236FB
:100FC000327001212161049F00223A70079905982F
:100FD000009109AA211C069BFFF7A6FE01300CD048
:100FE000351C2269AB1B93420ADA29780598069AC8
:100FF000079FB84701350130F3D10122504217E075
:101000002668B10705D4099BE068984210DA181CDD
:101010000EE00025E7680998391A8D42F3DA617EFF
:101020000598069A079EB0470130E6D00135F1E7F2
:101030000BB0F0BDC11B0000D21B000070B5051C39
:101040000E1C141C002804D08169002901D100F075
:10105000D1F9264B9C4201D16C6808E024488442B7
:1010600001D1AC6803E0234A944200D1EC68A16945
:10107000A389A160190702D5206900280CD1281C7A
:10108000211C00F039F8002806D0A68940210E4323
:10109000A68109242C600DE0216822696069F6B2FE
:1010A0008B1A834209DB281C211C00F091F80023D5
:1010B000984202D001256E4215E0A16822680139EC
:1010C000A16016706069013201332260834204D04E
:1010D000A389D90707D50A2E05D1281C211C00F0A9
:1010E00077F80028E6D1301C70BDC046E41B000034
:1010F000041C0000241C000070B5314D061C28683B
:101100000C1C002804D08169002901D100F072F97B
:101110002C4B9C4202D129684C680AE02A48844240
:1011200002D12D68AC6804E0284A944201D12C68B1
:10113000E468A3891A071ED4D90602D401214842C3
:101140003CE05A0713D5616B002908D0201C4430BD
:10115000814202D0301C00F0B9F900226263A589F7
:10116000242120698D430023A58163602060A58927
:1011700008221543A581216900290BD1A389A0204C
:10118000850080221D4091008D4203D0301C211C1F
:1011900000F02CFAA6890123334005D065690020B0
:1011A0006A42A060A26103E0B10700D46369A36052
:1011B00024690020844201D13206BFD470BDC046EC
:1011C0006C000010E41B0000041C0000241C000044
:1011D000F7B50C1C0969051C00293ED0002804D075
:1011E0008269002A01D100F005F94B4B9C4201D1E4
:1011F0006C6808E04948844201D1AC6803E0484E7D
:10120000B44200D1EC68A389002B26D01F0766D416
:101210008022100167681843A081002F02DC266C31
:10122000002E1ADDE76A002F17D08022002152011C
:101230002E681A40296001D0626D16E0281C216AD0
:101240000123B847021C431C0FD12B68002B0CD084
:101250001D2B01D0162B02D12E6000205BE0A5894A
:1012600040200543A581101C55E0A7897F0706D5BE
:101270006168636B521A002B01D0206C121A216A2C
:10128000281C0023E76AB847411C0DD12A68002AB0
:101290000AD01D2A08D0162A06D0A68940252E433A
:1012A000A6810124604236E02369A789002161609C
:1012B0002360FF0405D5411C02D12A68002A00D111
:1012C0006065616B2E600029C7D0201C44308142CC
:1012D00002D0281C00F0FAF8002060631BE02669A9
:1012E000002EBAD027680022B91B01912660990709
:1012F00000D16269A26001980028AEDD281C216A35
:10130000321C019BA76AB8470028C6DD019B36182E
:10131000191A0191EFE7FEBDE41B0000041C000058
:10132000241C000008B5011E05D1054805490068C8
:1013300000F035F903E0044B1868FFF749FF08BDDA
:10134000AC1B0000D11100006C000010F8B5041CAB
:10135000071C4C34002C13D0A5686668013E0DD4E0
:101360000C22AB5E002B07D00E22A85E431C03D0DC
:10137000381C291CFFF72CFF6835EFE72468E9E7E4
:10138000F8BD000010B50023041C036043608360B7
:1013900081814366C281036143618361191C082214
:1013A0005C30FFF7A9FA05480549064A064B246256
:1013B0006062A162E262236310BDC046851800002E
:1013C000AD180000E51800001119000070B568257F
:1013D0004D430E1C291C0C3100F062F9041E07D08D
:1013E0000C30002121606660A0602A1CFFF784FA9F
:1013F000201C70BD70B58569041C002D20D1114BD7
:10140000012683628661C5640565456500F01CF8A8
:101410006060201C00F018F8A060201C00F014F898
:101420000421E0602A1C6068FFF7ACFFA068092176
:10143000321CFFF7A7FFE06812210222FFF7A2FF8C
:1014400070BDC0464D130000F8B51E4B071C1E684A
:10145000B269002A02D1301CFFF7CCFF4C36B468C9
:101460007368013B05D40C22A55E002D11D06834B1
:10147000F7E73068002801D03668F0E7381C04210F
:10148000FFF7A4FF30600028F6D10C213960041C5E
:1014900015E001225042E0810126201CA6816566EC
:1014A0002560A560656025616561A5615C30291CCA
:1014B0000822FFF721FA6563A563A564E564201C93
:1014C000F8BDC046AC1B00007047704730B500291E
:1014D00040D004390B68002B00DAC9181E4A136883
:1014E000141C002B02D14B60116033E099420FD2E3
:1014F0000D684A199A4205D110682B1855680B607F
:101500004D6000E04B60216024E08A4203D8131C48
:101510005A68002AF9D11D685C198C420BD10C68FD
:101520002D1958191D60904214D1116852686C1819
:101530001C605A600EE08C4202D90C21016009E067
:1015400008680D18954203D11468526800190860A4
:101550004A60596030BDC04614010010F7B5041C44
:101560000191FFF7B1FF4C340026002C13D0A56881
:101570006768013F0DD40C22AB5E002B07D00E2212
:10158000A85E431C03D0281C019988470643683590
:10159000EFE72468E9E7FFF798FF301CFEBDF7B5D9
:1015A000071C0191FFF790FF3C1C4C340026002CD7
:1015B00017D06268A56800920098013800900ED498
:1015C0000C22AB5E002B08D00E22A95E4B1C04D06F
:1015D000381C291C019A904706436835ECE72468BB
:1015E000E5E7FFF772FF301CFEBD0000F0B58B8908
:1015F00091B0051C0C1C9A0725D40E23C95E002946
:1016000006DAA789802637400FD0002740260EE053
:1016100001AA00F0B1F90028F3DBF02702983902A3
:10162000184A01408F187B425F418023DE00281C4E
:10163000311C00F035F800280CD1A789BA051FD459
:1016400002263743A781211C4731012321602161F4
:10165000636115E00C498022A962A38920601343CD
:10166000A38120616661002F0AD00E23E15E281C51
:1016700000F094F9002803D0A58901200543A58135
:1016800011B0F0BD00E0FFFF4D13000008B5034BA3
:10169000011C186800F004F808BDC0466C0000107A
:1016A00070B50323CD1C9D430835061C0C2D01D2BB
:1016B0000C2501E0002D2DDB8D422BD31C4A136835
:1016C000111C1C1C002C12D02068421B0CD40B2AAD
:1016D00002D92260A41815E0A34202D166680E6008
:1016E0001CE065685D6019E0231C6468EAE7301C53
:1016F000291C00F0B5F8421C0CD0C41C03218C43FB
:10170000844201D1256009E0211A301C00F0A8F8BC
:101710000130F7D10C243460002008E0201C0B308D
:101720000722211D9043431A01D05D42E55070BD50
:1017300014010010C9B28218904204D003788B4281
:1017400002D00130F8E70020704708B582890923EC
:101750001A400021092A02D1FFF7E4FD011C081CF0
:1017600008BD000070B5051C0C1C002804D082695F
:10177000002A01D1FFF73EFE344B9C4201D16C6838
:1017800008E03348844201D1AC6803E031498C421F
:1017900000D1EC68A389002666609A0653D45A07E4
:1017A0001AD4DA0605D409262E6040252B43A381DE
:1017B00049E0082633420AD0281C211CFFF708FD07
:1017C000002840D1A389A060B343A381A061A08970
:1017D00004221043A08112E0616B00290FD0221C6B
:1017E0004432914202D0281CFFF770FE216C002089
:1017F00060636160814202D0E56B256025E021696C
:10180000002903D1281C211CFFF7F0FEA689B2078E
:1018100004D0114B11491868FFF7A0FE2269281C5B
:10182000216A22606369656AA847011C6060002024
:1018300081420ADCA289814201D1202001E060605E
:1018400040200243A2810124604270BDE41B0000DD
:10185000041C0000241C0000AC1B00004B170000FF
:1018600038B5074C0023051C081C236000F0E0F885
:10187000431C03D12168002900D0296038BDC0462F
:101880001C01001038B50C1C0E25495F00F0ACF8A7
:10189000002803DB616D0D18656503E0A289024B2A
:1018A0001340A38138BDC046FFEFFFFFF8B51E1CF3
:1018B0008B89051C0C1C171CDA0505D50E23C95E87
:1018C0000022022300F07CF8A2890548331C104056
:1018D000A0810E22A15E281C3A1C00F027F8F8BD5A
:1018E000FFEFFFFF38B50C1C0E25495F00F068F8CC
:1018F000A389421C03D1054D2B40A38104E0802223
:1019000051010B43A381606538BDC046FFEFFFFF67
:1019100008B50E23C95E00F01DF808BD0023C25CA7
:101920000133002AFBD1581E7047000038B5084C1F
:10193000051C00202060081C111C1A1CFEF720FD4D
:10194000431C03D12368002B00D02B6038BDC04658
:101950001C01001038B5074C0023051C081C23602F
:1019600000F056F8431C03D12168002900D02960FB
:1019700038BDC0461C01001038B5074C0023051CBB
:10198000081C111C2360FEF7A7FC431C03D121682F
:10199000002900D0296038BD1C01001038B5074C63
:1019A0000023051C081C2360FEF794FC431C03D194
:1019B0002168002900D0296038BDC0461C010010F4
:1019C00038B5084C051C00202060081C111C1A1C8E
:1019D00000F026F8431C03D12368002B00D02B60B5
:1019E00038BDC0461C01001038B5084C051C00204D
:1019F0002060081C111C1A1CFEF774FC431C03D148
:101A00002368002B00D02B6038BDC0461C0100109D
:101A1000024B5822012040421A6070471C010010FE
:101A2000024B5822012040421A6070471C010010EE
:101A3000094A1368002B0CD018186946884202D84E
:101A40001060181C7047054B0C2201201A6043429D
:101A5000F7E7034B1360EFE7180100101C010010BB
:101A600020010010002934D00123002210B4884244
:101A70002CD301242407A14204D2814202D20901BD
:101A80001B01F8E7E400A14204D2814202D24900DE
:101A90005B00F8E7884201D3401A1A434C08A04281
:101AA00002D3001B5C0822438C08A04202D3001B17
:101AB0009C082243CC08A04202D3001BDC0822432E
:101AC000002803D01B0901D00909E3E7101C10BC52
:101AD0007047002801D00020C04307B4024802A18B
:101AE0004018029003BDC046190000000029F0D044
:101AF00003B5FFF7B9FF0EBC4243891A1847C04629
:101B00007047C046F8B5C046F8BC08BC9E46704752
:101B1000F8B5C046F8BC08BC9E467047537973744C
:101B2000656D5F436F72655F436C6F636B203D2033
:101B300025640D002558205F66696C650D002558E9
:101B400020666C6167730D002558205F66696C65BF
:101B5000207374646F75740D002558207374646F5E
:101B6000757420666C6167730D002558207374646A
:101B7000657272205F66696C650D0025582073746C
:101B80006465727220666C6167730D002564200DB8
:101B90000041444330203D2025580D004449535412
:101BA000203D2025640D00430000000008000010C7
:101BB000232D302B2000686C4C0065666745464736
:101BC00000303132333435363738394142434445B9
:101BD0004600303132333435363738396162636428
:101BE000656600000000000000000000000000002A
:101BF00000000000000000000000000000000000E5
:101C000000000000000000000000000000000000D4
:101C100000000000000000000000000000000000C4
:101C200000000000000000000000000000000000B4
:101C300000000000000000000000000000000000A4
:081C400000000000000000009C
:101C480010000000006CDC0200000000E41B000033
:101C5800041C0000241C000000000000000000001C
:101C68000000000000000000A71B000000000000AA
:101C7800000000000000000000000000000000005C
:101C8800000000000000000000000000000000004C
:101C9800000000000000000000000000000000003C
:101CA8000000000000000000000000000800001014
:0C1CB800E9000000C10000000000000076
:040000030000086D84
:00000001FF
