:1000000000100010F104000031050000330500006D
:1000100000000000000000000000000000000000E0
:100020000000000000000000000000003505000096
:10003000000000000000000037050000BD010000C6
:100040003D0500003F05000041050000430500009C
:100050004505000047050000490500004B0500006C
:100060004D0500004F05000051050000530500003C
:100070005505000057050000590500005B0500000C
:100080005D0500005F0500006105000063050000DC
:100090006505000075010000690500006B050000A2
:1000A0006D0500006F05000071050000730500007C
:1000B0007505000077050000790500007B0500004C
:1000C00010B5064C2378002B07D10548002802D034
:1000D000044800E000BF0121217010BD780000102D
:1000E00000000000E40C000008B5084B002B03D012
:1000F0000748084900E000BF07480168002903D00D
:10010000064A002A00D0904708BDC0460000000003
:10011000E40C00007C0000107400001000000000DF
:10012000134BA022D205D15801204140D150D158C3
:1001300002204140D150D15803204140D150D158E4
:1001400004204140D150D15805204140D150D158D0
:1001500006204140D150D15807204140D150D158BC
:1001600008204140D150D15809204140D15070471A
:10017000FC3F00000E4B0C22996810B5114215D0BF
:100180005869C10712D50B4A10780130011C10398B
:100190004C1EA141084C4942014020788142EFD0D9
:1001A00010781C68C9B204701170E9E710BDC04630
:1001B000008000409600001095000010F8B5204A1D
:1001C000204B214D18681168013111601C682968A5
:1001D0000E191E601F68874203D21C4B186801303D
:1001E00018601B4E1B4D37782B680020B8420DD28B
:1001F0005C68002C07DD5A68541A5C605A68002A53
:1002000001DC00245C6001300C33EFE7002432781D
:10021000944214D20C2767432968CB1958680028E8
:1002200004D19A68002A01D0996888472B68DF19A1
:100230007868002801D13A687A600134E7E7F8BDB0
:10024000A4000010A0000010980000109C000010F6
:1002500094000010D800001010B50A4C0A4B0B4A4D
:1002600020681A604068002100F090F921688868D1
:10027000002100F08BF922680021D06800F086F997
:1002800010BDC0466800001000000010006CDC02C9
:10029000F7B50C1C631A934229DA17488027456882
:1002A000164B01950026BD034660154FDD67154BC3
:1002B0003D781F78BD420DD01F783D781F78BC4631
:1002C0000127BC446746FFB21F701F78102F02D170
:1002D0001E7000E00C4D019E0C4B46608020870391
:1002E0002DB21F606F1CD8D025700134D2E7D043E7
:1002F000C0171040FEBDC0460080004004E100E091
:100300009600001095000010FFFF000000E100E0E3
:1003100070B50B1C8818C41A002C07DD1C78044823
:100320004569AE06FBD504600133F3E7101C70BDD0
:100330000080004037B5002338480193026811213E
:100340008A4302210A43026003688E22344B8A40AA
:100350009C58802004439C501C6C0325AC431C64B7
:100360001C6C1C645D6C8D435D645C6C2143596442
:10037000232199609D5885432A489D5001380028C3
:1003800015D0DC680121264A0C42F7D0264D2748BB
:1003900003230560156F146F1D439C43201C2843E5
:1003A0001067556F8D435567546F21435167002384
:1003B0000193019A1E498A4203D8C046019B01332A
:1003C000F6E71A4B6421186800F042F8194B1A49F5
:1003D0001A4C1B4A042501382570136048611948DE
:1003E00000250A2407228D611D6004605D600124E0
:1003F0009D60FA20DD601D615D619D61DD611D62B2
:100400005D629D62DD620A610F49104AA040CC60C6
:100410001861D8605A610195FEE7C04610C00340DC
:100420000080044040420F00006CDC02000000101D
:100430007F8D5B00A800001000E000E09400001039
:10044000D800001098000010004004402101000076
:10045000002934D00123002210B488422CD3012477
:100460002407A14204D2814202D209011B01F8E70C
:10047000E400A14204D2814202D249005B00F8E7C5
:10048000884201D3401A1A434C08A04202D3001BF1
:100490005C0822438C08A04202D3001B9C08224324
:1004A000CC08A04202D3001BDC082243002803D062
:1004B0001B0901D00909E3E7101C10BC7047002894
:1004C00001D00020C04307B4024802A140180290A6
:1004D00003BDC046190000000029F0D003B5FFF7A6
:1004E000B9FF0EBC4243891A1847C0467047C04640
:1004F0000A490B4A0B4B9B1A03DD043BC858D050EA
:10050000FBDC0949094A521A03DD00208850043AED
:10051000FCDAFFF7A1FEFFF70DFF0000E80C00007A
:10052000000000107800001078000010E8000010B3
:10053000FEE7FEE7FEE7FEE7FEE7FEE7FEE7FEE793
:10054000FEE7FEE7FEE7FEE7FEE7FEE7FEE7FEE783
:10055000FEE7FEE7FEE7FEE7FEE7FEE7FEE7FEE773
:10056000FEE7FEE7FEE7FEE7FEE7FEE7FEE7FEE763
:10057000FEE7FEE7FEE7FEE7FEE7FEE78218031C64
:10058000934202D019700133FAE7704708B54A4226
:100590004A4180235200DB0000F002F808BD000051
:1005A000F7B53E4F041C38680E1C01921D1C002834
:1005B00004D08269002A01D100F078F9384B9C42BE
:1005C00002D13B685C680AE03648844202D13A684E
:1005D000946804E034498C4201D13C68E468019895
:1005E000022858D8002D56DB211C386800F060F82E
:1005F000A28900216160A161120603D538682169D2
:1006000000F0BEF9A389832001998343A3810229C5
:1006100013D0002E25D1002D01D18025ED00281CFE
:1006200000F0F6F9061E18D18026F00000F0F0F96F
:10063000061E10D10125684200E00020A389022790
:10064000211C47313B4300260122A381A660216083
:100650002161626121E08022D500A38980200343CB
:10066000A3810199012904D1A2896B420A43A28185
:10067000A3613F680D48B86226602661A68965615E
:100680000020320709D503210E40724256417242C2
:100690001540A56001E001246042FEBD6800001025
:1006A000840C0000A40C0000C40C0000050800002D
:1006B000F7B50C1C0969051C00293ED0002804D0A0
:1006C0008269002A01D100F0F1F84B4B9C4201D124
:1006D0006C6808E04948844201D1AC6803E0484EA8
:1006E000B44200D1EC68A389002B26D01F0766D442
:1006F0008022100167681843A081002F02DC266C5D
:10070000002E1ADDE76A002F17D080220021520147
:100710002E681A40296001D0626D16E0281C216AFB
:100720000123B847021C431C0FD12B68002B0CD0AF
:100730001D2B01D0162B02D12E6000205BE0A58975
:1007400040200543A581101C55E0A7897F0706D5E9
:100750006168636B521A002B01D0206C121A216A57
:10076000281C0023E76AB847411C0DD12A68002ADB
:100770000AD01D2A08D0162A06D0A68940252E4365
:10078000A6810124604236E02369A78900216160C7
:100790002360FF0405D5411C02D12A68002A00D13C
:1007A0006065616B2E600029C7D0201C44308142F7
:1007B00002D0281C00F0E4F8002060631BE02669EA
:1007C000002EBAD027680022B91B01912660990734
:1007D00000D16269A26001980028AEDD281C216A60
:1007E000321C019BA76AB8470028C6DD019B36185A
:1007F000191A0191EFE7FEBD840C0000A40C000063
:10080000C40C0000F8B5041C071C4C34002C13D099
:10081000A5686668013E0DD40C22AB5E002B07D0A4
:100820000E22A85E431C03D0381C291CFFF740FF92
:100830006835EFE72468E9E7F8BD000010B500234C
:10084000041C03604360836081814366C28103614D
:1008500043618361191C08225C30FFF78FFE054855
:100860000549064A064B24626062A162E262236384
:1008700010BDC046DD0A0000050B00003D0B000066
:10088000690B000070B568254D430E1C291C0C3106
:1008900000F0C8F8041E07D00C300021216066600B
:1008A000A0602A1CFFF76AFE201C70BD70B5856928
:1008B000041C002D20D1114B012683628661C56482
:1008C0000565456500F01CF86060201C00F018F814
:1008D000A060201C00F014F80421E0602A1C60686D
:1008E000FFF7ACFFA0680921321CFFF7A7FFE06803
:1008F00012210222FFF7A2FF70BDC04605080000CA
:10090000F8B51E4B071C1E68B269002A02D1301CC4
:10091000FFF7CCFF4C36B4687368013B05D40C225A
:10092000A55E002D11D06834F7E73068002801D0AB
:100930003668F0E7381C0421FFF7A4FF3060002878
:10094000F6D10C213960041C15E001225042E081EF
:100950000126201CA68165662560A560656025616D
:100960006561A5615C30291C0822FFF707FE6563FD
:10097000A563A564E564201CF8BDC046800C00009A
:1009800030B5002940D004390B68002B00DAC918B3
:100990001E4A1368141C002B02D14B60116033E017
:1009A00099420FD20D684A199A4205D110682B1846
:1009B00055680B604D6000E04B60216024E08A4286
:1009C00003D8131C5A68002AF9D11D685C198C429F
:1009D0000BD10C682D1958191D60904214D1116863
:1009E00052686C181C605A600EE08C4202D90C21CF
:1009F000016009E008680D18954203D11468526837
:100A0000001908604A60596030BDC046DC00001023
:100A100008B5034B011C186800F004F808BDC04677
:100A20006800001070B50323CD1C9D430835061CDB
:100A30000C2D01D20C2501E0002D2DDB8D422BD396
:100A40001C4A1368111C1C1C002C12D02068421B6D
:100A50000CD40B2A02D92260A41815E0A34202D1BB
:100A600066680E601CE065685D6019E0231C6468C0
:100A7000EAE7301C291C00F01FF8421C0CD0C41CF3
:100A800003218C43844201D1256009E0211A301CE6
:100A900000F012F80130F7D10C243460002008E097
:100AA000201C0B300722211D9043431A01D05D42C8
:100AB000E55070BDDC00001038B5074C0023051C64
:100AC000081C236000F0B4F8431C03D121680029FE
:100AD00000D0296038BDC046E400001038B50C1CB9
:100AE0000E25495F00F080F8002803DB616D0D18CA
:100AF000656503E0A289024B1340A38138BDC0465F
:100B0000FFEFFFFFF8B51E1C8B89051C0C1C171C82
:100B1000DA0505D50E23C95E0022022300F050F845
:100B2000A2890548331C1040A0810E22A15E281C1A
:100B30003A1C00F01FF8F8BDFFEFFFFF38B50C1CA2
:100B40000E25495F00F03CF8A389421C03D1054DF6
:100B50002B40A38104E0802251010B43A3816065F7
:100B600038BDC046FFEFFFFF08B50E23C95E00F099
:100B700015F808BD38B5084C051C00202060081C7D
:100B8000111C1A1CFFF7C4FB431C03D12368002B64
:100B900000D02B6038BDC046E400001038B5074CCB
:100BA0000023051C081C236000F032F8431C03D10D
:100BB0002168002900D0296038BDC046E40000103B
:100BC00038B5084C051C00202060081C111C1A1C9C
:100BD00000F026F8431C03D12368002B00D02B60C3
:100BE00038BDC046E400001038B5084C051C002094
:100BF0002060081C111C1A1CFFF74AFB431C03D180
:100C00002368002B00D02B6038BDC046E4000010E4
:100C1000024B5822012040421A607047E400001045
:100C2000024B5822012040421A607047E400001035
:100C3000094A1368002B0CD018186946884202D85C
:100C40001060181C7047054B0C2201201A604342AB
:100C5000F7E7034B1360EFE7E0000010E40000103B
:100C6000E8000010F8B5C046F8BC08BC9E467047C6
:100C7000F8B5C046F8BC08BC9E467047430000006B
:100C80000400001000000000000000000000000050
:100C90000000000000000000000000000000000054
:100CA0000000000000000000000000000000000044
:100CB0000000000000000000000000000000000034
:100CC0000000000000000000000000000000000024
:100CD0000000000000000000000000000000000014
:080CE00000000000000000000C
:100CE800006CDC0200000000840C0000A40C000072
:100CF800C40C00000000000000000000000000001C
:100D0800000000007C0C0000000000000000000053
:100D180000000000000000000000000000000000CB
:100D280000000000000000000000000000000000BB
:100D380000000000000000000000000000000000AB
:100D4800000000000000000004000010E90000009E
:080D5800C100000000000000D2
:04000003000004F104
:00000001FF
